:020000040800F2
:10000000F8040020010100088D1000088510000888
:10001000891000080109000881170008000000008D
:100020000000000000000000000000002513000890
:100030006D0F00080000000079110008E9140008A5
:100040001B0100081B0100081B0100081B01000820
:100050001B0100081B0100081B0100081B01000810
:100060001B0100081B0100081B0100081B01000800
:100070001B0100081B0100081B0100081B010008F0
:100080001B0100081B0100081B0100081B010008E0
:10009000611700081B0100081B0100081B01000874
:1000A0001B0100081B0100081B0100081B010008C0
:1000B0001B0100081B0100081B0100081B010008B0
:1000C0001B0100081B0100081B0100081B010008A0
:1000D0001B0100084D1500081B0100081B0100084A
:1000E0001B0100081B0100081B010008DFF80CD0F1
:1000F00000F066FB00480047A1200008F80400203B
:100100000648804706480047FEE7FEE7FEE7FEE7B1
:10011000FEE7FEE7FEE7FEE7FEE7FEE7ED14000878
:10012000ED000008F0B480EA0102D40F4200B2EB07
:10013000410F02D20246084611464A0042D0C30D82
:10014000DDB2C1F3C752AD1A202D35DAC1F3160165
:1001500041F4000204B15242C5F1200602FA06F150
:100160002A411044B3EBD05F23D0C4B1012DA0EBE2
:10017000C35009DCF0BC4FF0004202EAC352DBB2CC
:1001800000F5000000F036B9400000F1807000EB8F
:10019000C350A0F1807040EAD170490009E04908DD
:1001A00041EAC071A0EBC35000F50000400800EB2D
:1001B000C350F0BC00F015B96142012202EB4101CD
:1001C000001BF6E7F0BC704781F00041AAE780F021
:1001D0000040A7E780EA010210B502F000434000AA
:1001E00022D04A001FD0010E01EB1261C0F356006D
:1001F000C2F3560240F4000042F40002A0FB0220C9
:1002000000047F39140400D0401C50EA124001D48D
:100210004000491EC2B20C0604EBD010401C40083E
:10022000802A02D003E0002010BD20F00100002948
:1002300000DA0020184310BD30B480EA010202F059
:10024000004530F0004221F0004013D090B1C30DC2
:10025000D40DC2F31601C0F31600E41A41F40001F4
:1002600040F400027D34914201D3641C00E0490057
:10027000002C02DA30BC002070474FF4000000234D
:10028000914201D3891A034340084FEA4101F7D153
:1002900051B1914202D14FF0004105E002D24FF03E
:1002A000010101E06FF0010103EBC450284430BCB0
:1002B00000F097B8C10F80EAE0700844CA0796239F
:1002C000002100F097B896230022114600F092B862
:1002D00000F0004220F00040C10DC0F3160040F4D1
:1002E00000007F2901DA00207047962903DCC1F164
:1002F0009601C84001E096398840002AF4D0404277
:10030000704720F00040C10DC0F3160040F400001B
:100310007F2901DA00207047962903DCC1F196019C
:10032000C84070479639884070470000002801DBBC
:10033000C0F10040002901DBC1F10041814270475A
:10034000002801DBC0F10040002901DBC1F10041C0
:100350008842704730B50B46014600202022012418
:1003600009E021FA02F59D4205D303FA02F5491B83
:1003700004FA02F52844151EA2F10102F1DC30BD99
:100380002DE9F05F0546002092469B4688460646CA
:10039000814640241BE0284641464746224600F05D
:1003A00030FA53465A46C01A914110D311461846A6
:1003B000224600F017FA2D1A67EB01084F46224635
:1003C0000120002100F00EFA17EB00094E41201E1B
:1003D000A4F10104DFDC484631462A464346BDE825
:1003E000F09F0029A8BF7047401C490008BF20F0BB
:1003F0000100704710B4B0FA80FC00FA0CF050EA2B
:10040000010404BF10BC704749B1CCF1200421FAAB
:1004100004F411FA0CF118BF012121430843A3EBA6
:100420000C01CB1D4FEA00614FEA102042BF0020B3
:1004300010BC704700EBC35010440029A4BF10BC8F
:100440007047401C490008BF20F0010010BC7047F5
:100450002DE9FE4F804681EA0300C00F0C46009054
:1004600021F0004123F00045B8EB0200A94105D27C
:100470004046214690461C460B46024623F000406B
:10048000104347D0270DC7F30A00C3F30A51029067
:10049000401A019040286BDAC3F3130040F4801B2C
:1004A0000098924620B10023D2EB030A63EB0B0BBA
:1004B00001985946C0F14002504600F093F90646B3
:1004C0000D4650465946019A00F0ABF910EB080072
:1004D0006141002487EA115284EAE7731A4340D04D
:1004E000009A62B3019A012A4FEA075215DC001BF9
:1004F00061EB02014FF0004202EA0752CDE90042EF
:10050000001C41F5801132462B4600F0ABF903B0D8
:10051000BDE8F08F40462146F9E7001B61EB020180
:10052000001C41F5801300185B412018A2F500174C
:1005300047EB030140EAD570B6196D4111E06D0833
:100540004FEA360645EAC0754FEA0752001B61EBD9
:100550000201001C41F5801149084FEA30000019E2
:10056000514132462B4603B0BDE8F04F00F06BB965
:100570000098012240000023D0EB020263EBE073FD
:10058000009821464FEAE074B8EB000061EB0401EB
:10059000E9E783F000435BE781F0004158E72DE98C
:1005A000FE4F81EA030404F0004421F0004100946E
:1005B0004FF0000B23F0004350EA01045ED052EAF2
:1005C00003045BD0C3F30A54C1F30A552C44A4F2CC
:1005D000F3340194A0FB0254C1F3130141F48011E0
:1005E000C3F3130343F4801301FB024400FB034EE7
:1005F000840A970A44EA815447EA8357A4FB0768B0
:1006000002958D0A05FB07854FEA932C04FB0C54D9
:100610002705029D4FEA065847EA1637B5EB08054D
:100620006EEB070C870E920E47EA811742EA83129F
:10063000A7FB0201B6EB0B0164EB00042B0D43EAB0
:100640000C335E1844EB1C50DA465146E7FB0201BE
:10065000C5F313044FEA0B3343EA14534FEA043251
:10066000019C43EA0603A4F10C040294009CCDE92A
:1006700000B400F0F7F803B0BDE8F08F00200146A9
:10068000F9E72DE9F04D81EA030404F0004B21F075
:10069000004514464FF0000A23F0004150EA0502DD
:1006A00020D054EA01021DD0C5F30A570246C5F313
:1006B0001303C1F31300C1F30A5640F4801543F449
:1006C0008013A7EB0608101BD64608F2FD3873EB23
:1006D000050002D308F1010801E092185B41B8F16E
:1006E000000F03DA00200146BDE8F08D00204FF432
:1006F0008011064684460EE0171B73EB050705D3F1
:10070000121B63EB050306434CEA010C49084FEA50
:10071000300092185B4150EA0107EDD152EA030024
:1007200012D082EA040083EA0501084305D0101BB9
:10073000AB4106D20122002306E000224FF0004325
:1007400002E06FF0010253101AEB06004CEB085167
:1007500010EB0A0041EB0B01BDE8F04D00F073B85F
:10076000C1F30A52C1F3130140F2FF3341F4801187
:100770009A4202DA00200146704740F233439A421F
:10078000A2F2334202DC524200F03BB800F02AB839
:1007900030B5041E71F1000404DB4FF00044404208
:1007A00064EB0101141E73F1000405DB1C464FF0DD
:1007B0000043524263EB0403994208BF904230BDAC
:1007C000064C074D06E0E06840F0010394E807009E
:1007D00098471034AC42F6D3FFF78CFCFC2300089A
:1007E0001C240008202A04DB203A00FA02F1002031
:1007F00070479140C2F1200320FA03F3194390405F
:100800007047202A04DB203A21FA02F000217047C9
:1008100021FA02F3D040C2F1200291400843194668
:100820007047202A06DBCB17203A41FA02F043EA50
:10083000E07306E041FA02F3D040C2F12002914099
:1008400008431946704710B5141E73F1000408DA06
:10085000401C41F1000192185B411A4301D120F084
:10086000010010BD2DE9F04D92469B4611B1B1FA41
:1008700081F202E0B0FA80F220329046FFF7B2FF38
:1008800004460F4640EA0A0041EA0B0153465A4625
:10089000084313D0114653EA010019D0C8F14002B1
:1008A0005046FFF7AEFF05460E46504659464246B3
:1008B000FFF798FF084305D0012004E020463946A1
:1008C000BDE8F08D0020054346EAE0762C4337432F
:1008D0000A986305E40AA0EB08000022FD0A44EA36
:1008E00047540A3002D500200146E9E701051019F6
:1008F0006941DDE9084500196941BDE8F04DA2E70D
:1009000000BFFEE710B500F0C9F800F07FF900F075
:10091000A3F800F0ABF910BD10B504460B488442B3
:1009200009D10121480600F039FC00214FF0007088
:1009300000F034FC08E00121880600F02FFC0021C3
:100940004FF0806000F02AFC10BD00000064004001
:1009500010B50021837A012202FA03F13D4A1268A0
:1009600042F001023B4B1A603A4A1C3212688A4339
:10097000384B1C331A60027BCAB9364A0C321268F3
:100980008A43344B0C331A604288C38842EA0343DB
:10099000304A4032847A42F834300288838842EA0E
:1009A00003432C4A4032847A02EBC4025360027B38
:1009B000012A19D1274A0C3212680A43254B0C33FD
:1009C0001A604288038842EA0343224A4032847A0A
:1009D00042F83430C288838842EA03431D4A4032D9
:1009E000847A02EBC4025360C27A3AB9194A121DE2
:1009F00012688A43174B1B1D1A6006E0154A121D28
:100A000012680A43134B1B1D1A60028932B9114A3E
:100A1000143212688A430F4B14331A600289012A78
:100A200006D10C4A143212680A430A4B14331A6076
:100A3000427B012A06D1074A1C3212680A43054B41
:100A40001C331A60034A126822F00102014B1A603B
:100A500010BD0000006600401FB500208DF80A00A0
:100A60008DF80B0001208DF80C000020ADF800007F
:100A7000ADF80200ADF80400ADF80600ADF80800CE
:100A800001208DF80D006846FFF762FF0122022168
:100A9000014800F027F81FBD0064004008B501219F
:100AA000052000F08BFB4FF48050ADF800001820BB
:100AB0008DF8030003208DF802006946084800F015
:100AC00056FA4FF40060ADF8000048208DF803009E
:100AD00003208DF802006946014800F048FA08BD7D
:100AE000000801401AB143690B43436102E04369C6
:100AF0008B434361704730B50246002000231468E1
:100B000024F002041460146844F00104146000E04E
:100B10005B1C546804F001041CB94FF6FF74A34237
:100B2000F6D1546804F001040CB900206CE08C7913
:100B3000012C04D1146844F08004146003E01468AC
:100B400024F080041460CC79012C04D1146844F0A2
:100B50004004146003E0146824F0400414600C7A2C
:100B6000012C04D1146844F02004146003E01468DC
:100B700024F0200414604C7A012C04D1146844F051
:100B80001004146003E0146824F0100414608C7ADC
:100B9000012C04D1146844F00804146003E01468C4
:100BA00024F008041460CC7A012C04D1146844F0B9
:100BB0000404146003E0146824F0040414608C78C6
:100BC000A407CD7844EA05640D7944EA05444D79DB
:100BD00044EA05540D886D1E2C43D461146824F03A
:100BE00001041460002300E05B1C546804F001045D
:100BF0001CB14FF6FF74A342F6D1546804F001040F
:100C00000CB1002000E0012030BD00000EB5012134
:100C1000480600F0B3FA1448FFF77EFE684600F07D
:100C2000B2F800208DF806008DF807008DF8080056
:100C300001208DF8090000208DF80A008DF80B00C6
:100C40008DF8020001208DF8030004208DF80400C7
:100C500002208DF805000420ADF800006946024826
:100C6000FFF749FF0EBD00000064004008B54FF4D7
:100C7000E06000F045FA14208DF8000000208DF8A7
:100C8000010002208DF8020001208DF80300684663
:100C900000F0FEF908BD10B500F5D87303EB0113A1
:100CA0001B6803F004031372137A53B900F5D87369
:100CB00003EB01131B6840F2FF7404EA5353136003
:100CC00009E000F5D87303EB01131B686FF0604473
:100CD00004EAD303536000F5D87303EB01131B68D8
:100CE00003F00203537200F5D87303EB01135B6842
:100CF00003F00F03937200F5D87303EB01135B68E5
:100D00001B0AD37400F5D87303EB01139B68D372ED
:100D100000F5D87303EB01139B681C0A147300F5EC
:100D2000D87303EB01139B681C0C547300F5D87344
:100D300003EB01139B681B0E937300F5D87303EB51
:100D40000113DB68D37300F5D87303EB0113DB6881
:100D50001C0A147400F5D87303EB0113DB681C0C38
:100D6000547400F5D87303EB0113DB681B0E937406
:100D700021B9C36843F02003C36003E0036943F073
:100D80002003036110BD00218171C17101724172A4
:100D90008172C1728170C1700321017102214171A0
:100DA00001210180704710B502460020936803F0CE
:100DB0008063B3F1806F00D110E0936803F00063AB
:100DC000B3F1006F01D1012008E0936803F0805374
:100DD000B3F1805F01D1022000E00420042874D028
:100DE00002F5C07303EB00131B6803F0010402F566
:100DF000C07303EB00131C600B7A7BB94B7A0C8831
:100E000043EA445302F5C07404EB001424682343FE
:100E100002F5C07404EB0014236010E00B7A4C68F8
:100E200043EAC4034C7A234302F5C07404EB001474
:100E30002468234302F5C07404EB001423608B7A0A
:100E400003F00F038B7202F5C07303EB00135B68B2
:100E500023F00F0402F5C07303EB00135C6002F58E
:100E6000C07303EB00135B688C7A234302F5C074F4
:100E700004EB001463608B7B1C064B7B44EA034449
:100E80000B7B44EA0323CC7A234302F5C07404EBC2
:100E90000014A3608B7C1C064B7C44EA03440B7C4F
:100EA00044EA0323CC7B234302F5C07404EB001413
:100EB000E36002F5C07303EB00131B6843F0010409
:100EC00002F5C07303EB00131C6010BD10B50246A1
:100ED000002321B1012907D002290FD109E0906830
:100EE0001D4C00EA04030BE090681C4C00EA04036C
:100EF00006E090681A4C00EA040301E0002300BFFA
:100F000000BF184C181BA34216D007DC83B16FF04A
:100F10008060184470B1022818D111E0B0F5007F4C
:100F200010D0114C204448B1B0F5003F0ED10BE079
:100F300002230DE000230BE0002309E0002307E07B
:100F4000012305E0012303E0012301E0002300BFAA
:100F500000BFD8B210BD0000030000040003000869
:100F600000000310000100080001FFF770472DE9A1
:100F7000F04102460025002600200023002400271F
:100F800091F803C00CF00F0591F803C00CF0100CA1
:100F9000BCF1000F03D091F802C04CEA050591F8AE
:100FA00000C0BCF1000F31D0146800202BE04FF0DE
:100FB000010C0CFA00F3B1F800C00CEA03069E42E3
:100FC00020D183004FF00F0C0CFA03F7BC4305FA55
:100FD00003FC4CEA040491F803C0BCF1280F06D1CD
:100FE0004FF0010C0CFA00FCC2F814C00AE091F8B2
:100FF00003C0BCF1480F05D14FF0010C0CFA00FC06
:10100000C2F810C0401C0828D1D31460B1F800C049
:10101000BCF1FF0F34DD546800202EE000F1080C15
:101020004FF0010808FA0CF3B1F800C00CEA03060F
:101030009E4221D183004FF00F0C0CFA03F7BC4302
:1010400005FA03FC4CEA040491F803C0BCF1280F34
:1010500005D100F1080C08FA0CF8C2F8148091F8D8
:1010600003C0BCF1480F07D100F1080C4FF0010894
:1010700008FA0CF8C2F81080401C0828CED354603F
:10108000BDE8F08100BFFEE700BFFEE7704700004B
:1010900070B5002100230F22C47804B3154C2468D6
:1010A00004F4E064C4F5E064210AC1F10403CA4019
:1010B000447804FA03F184781440214309010E4C6A
:1010C0000678A155047804F01F050124AC4005788A
:1010D0006D11AD0005F1E025C5F8004109E0047887
:1010E00004F01F050124AC40044D0678761145F844
:1010F000264070BD0CED00E000E400E080E100E07F
:1011000002490143024A1160704700000000FA05DD
:101110000CED00E02DE9FC4704460F469046994649
:10112000DDE90B6A0A9DBAF1000F14D11048E063A3
:1011300010482064CDE900564B46424639462046C9
:10114000D4F83CC0E0474B46424639462046D4F8E6
:1011500040C0E0470AE00648E063CDE900564B4650
:10116000424639462046D4F83CC0E047BDE8FC87FB
:10117000312300084D2300087047000029B1064ABA
:10118000D2690243044BDA6104E0034AD269824324
:10119000014BDA61704700000010024029B1064A95
:1011A00012690243044B1A6104E0034A1269824344
:1011B000014B1A61704700000010024029B1064A35
:1011C00092690243044B9A6104E0034A92698243A4
:1011D000014B9A61704700000010024030B50021B9
:1011E0000022002400232D4D6D6805F00C0121B173
:1011F000042905D0082923D105E0294D056022E006
:10120000274D05601FE0254D6D6805F47012234DD4
:101210006D6805F48034022505EB92421CB9214D1E
:10122000554305600BE01D4D6D6805F400351DB19B
:101230001C4D5543056002E0194D5543056002E021
:10124000174D056000BF00BF144D6D6805F0F0013B
:101250000909154D6B5C0568DD4045600F4D6D68F3
:1012600005F4E061090A104D6B5C4568DD4085605E
:101270000A4D6D6805F46051C90A0B4D6B5C4568F9
:10128000DD40C560054D6D6805F44041890B074D93
:101290006B5CC568B5FBF3F5056130BD001002401D
:1012A00000127A0000093D0000000020100000201C
:1012B000002140F2012202600022027208228272A2
:1012C0000022C27400BF05E0002300F10B0253545A
:1012D0004A1CD1B20829F7DB7047000070B50446FC
:1012E0004FF400700D490860002008724872082011
:1012F0008872200AC872084604730948FFF753FD34
:1013000006490748FFF74FFD054600BFE9B204480C
:10131000FFF7DCFD0028F9D070BD00003000002090
:10132000006400407047000000B587B001218803C9
:10133000FFF744FF01210420FFF740FF18208DF83C
:101340001B004FF40070ADF8180003208DF81A0050
:1013500006A92148FFF70BFE48208DF81B004FF42B
:101360008060ADF8180003208DF81A0006A91A480D
:10137000FFF7FDFD4FF4E13002900020ADF81400BE
:101380000C20ADF812000020ADF81000ADF80E00F2
:10139000ADF80C0002A9114800F06CF9012240F2EE
:1013A00025510E4800F040F94FF4A060FFF7A8FE69
:1013B00025208DF8040001208DF807008DF8050028
:1013C0008DF8060001A8FFF763FE0121034800F035
:1013D000E8F807B000BD00000008014000380140F7
:1013E00010B504462146054800F0B5F900BF80213C
:1013F000024800F0E2F80028F9D010BD00380140A2
:1014000010B500F001F810BD0CB50020019000905F
:101410003348006840F480303149086000BF3048EC
:10142000006800F4003000900198401C0190009882
:1014300018B90198B0F5A06FF1D12948006800F4FF
:10144000003010B10120009001E0002000900098D1
:10145000012843D12348006840F01000214908606A
:101460000846006820F0030008600846006840F065
:10147000020008601A4840681949486008464068F8
:1014800048600846406840F480604860084640680C
:1014900020F47C1048600846406840F4E81048603A
:1014A0000846006840F08070086000BF0C48006883
:1014B00000F000700028F9D00948406820F00300CF
:1014C000074948600846406840F00200486000BF95
:1014D0000348406800F00C000828F9D10CBD00005A
:1014E00000100240002002407047000010B5134871
:1014F000006840F001001149086008464068104942
:1015000008400E494860084600680E4908400B49EB
:1015100008600846006820F480200860084640689B
:1015200020F4FE0048604FF41F008860FFF768FF5A
:101530004FF000600449086010BD00000010024038
:101540000000FFF8FFFFF6FE08ED00E010B540F2E6
:101550002551094800F03EF801280CD1064800F05A
:10156000F5F80649087001200549087040F2255138
:10157000014800F007F810BD0038014014000020B9
:101580001500002010B50022002340F66A14A14285
:1015900000D100BF0A1201249440A3B2DC430480AE
:1015A00010BD21B1828942F40052828104E0828917
:1015B0004DF6FF731A408281704702460020B1F554
:1015C000007F00D100BF13880B400BB1012000E069
:1015D0000020704770B5024600240023002500203B
:1015E00040F66A16B14200D100BFC1F3421501F0C6
:1015F0001F03012606FA03F3012D02D19689334019
:1016000006E0022D02D1168A334001E0968A33406B
:101610000C12012606FA04F41688344013B10CB1FA
:10162000012000E0002070BDF0B503460024002634
:101630000025002040F66A17B94200D100BF1846C5
:10164000C1F3421401F01F06012707FA06F5012C29
:1016500001D10C3004E0022C01D1103000E0143034
:101660001AB107682F43076002E00768AF430760BD
:10167000F0BD00002DE9F04786B005460E46002477
:10168000A24600BFA1460027B08900B100BF2F4687
:101690002C8A4CF6FF700440F08804432C82AC89FD
:1016A0004EF6F3100440B08831890843718908432D
:1016B0000443AC81AC8A4FF6FF400440B089044338
:1016C000AC8201A8FFF78AFD1F48874202D1DDF8EE
:1016D00010A001E0DDF80CA0A88900F4004040B1A2
:1016E0000AEBCA0000EB0A1031684900B0FBF1F8C0
:1016F00007E00AEBCA0000EB0A1031688900B0FB72
:10170000F1F86420B8FBF0F004012009642101FB2A
:101710001089A88900F4004040B1322000EBC900D4
:10172000B0FBF1F000F00700044308E0322000EBCA
:1017300009106421B0FBF1F000F00F0004432C818C
:1017400006B0BDE8F08700000038014001468888F7
:10175000C0F308007047C1F30802828070470000A0
:1017600010B5044A00210448FFF795FA0120034907
:10177000086010BD440000200064004018000020F4
:1017800000BFFEE70FB4054B10B503A9044A029849
:1017900000F0CAF810BC5DF814FB00008F200008B0
:1017A0002C00002002E008C8121F08C1002AFAD14C
:1017B00070477047002001E001C1121F002AFBD1D1
:1017C000704700002DE9FF5FDDE90220010DDDF823
:1017D00038B0024318D044F61050A1F2FF31414313
:1017E0000D140F98012820D0A5EB0B00401C5FEAD8
:1017F000000A4FF00004474EDFF81C91A046504607
:1018000016D5CAF1000728E00F98012443A2012849
:1018100008D0002100980F9BC0E90021C0E90243D5
:10182000BDE8FF9F6FEA0B01F4E7CBF10000DEE7B4
:10183000074612E0F80707D022463346404649469D
:10184000FEF7ADFE804689462246334610461946CD
:10185000FEF7A5FE04460E467F10002FEAD1DDE913
:101860000201BAF1000F42464B4602DAFEF797FE3C
:1018700001E0FEF706FF04460E460022284BFEF765
:1018800087FF03D84FF0FF30014607E00022254BC9
:1018900020463146FEF7DCFDFEF762FF102409E02A
:1018A000002C0ADB0A220023FEF76AFD019B30327E
:1018B0001A55641E50EA0102F2D1641C019AC4F167
:1018C000110314440F9A012A03D0012208430DD1B9
:1018D0000AE0084304D000204FF0110B0F9080E77E
:1018E000A3EB0B056D1E0DE05B4504DD4FF0000220
:1018F00005F1010504E003DA4FF00002A5F101054E
:10190000002AECD000980F99C0E90231C0E90045E7
:1019100086E70000000024400000F03F3000000097
:101920000000F0430000E03F2DE9FF4F95B09B46DB
:101930008946064600250FE2252877D10024274650
:10194000F84A0121059400E0044316F8013F203BCA
:1019500001FA03F01042F7D130782A2811D06FF045
:101960002F033078A0F13002092A16D8059A44F0E6
:10197000020402EB820203EB42021044761C059043
:10198000EFE759F8042B0592002A03DA504244F499
:101990000054059044F00204761C30782E2816D1AD
:1019A00016F8010F44F004042A280DD06FF02F021E
:1019B0003078A0F13003092B09D807EB870302EB3D
:1019C0004303C718761CF3E759F8047B761C30787C
:1019D0006C280FD006DC4C2817D068280DD06A2858
:1019E00014D104E0742810D07A280FD10DE044F40B
:1019F00000140AE044F4801401E044F440147278C6
:101A0000824202D104F58014761C761C3078662858
:101A10000BD013DC582877D009DC002875D0452876
:101A2000F6D04628F4D047281AD19DE118E0632863
:101A300035D0642879D0652812D195E1702873D00B
:101A400008DC6728F1D069286FD06E280DD06F2888
:101A500006D1B5E073282CD0752875D0782874D0BD
:101A60005A46179990476D1C75E1C4F3025002283D
:101A700009D003280DD0D9F8001004280DD00D602E
:101A800009F1040967E1D9F80010EA17C1E9005229
:101A9000F6E7D9F800100D80F2E70D70F0E719F8BD
:101AA000041B8DF8001000208DF80100EA4601208B
:101AB00003E059F804AB4FF0FF3061074FF000012D
:101AC00002D40DE008F101018846B9420FDA8045E1
:101AD000F8DB1AF808100029F4D108E008F1010138
:101AE00088468142FADB1AF808100029F6D10598D9
:101AF0005B46A0EB080721463846179A00F094FA97
:101B0000284400EB080507E04DE029E10DE01AF854
:101B1000010B5A4617999047B8F10108F7D25B4676
:101B200021463846179A13E142E00A220092C4F394
:101B300002524FF0000A022A08D059F804CB032AB7
:101B40004FEAEC710AD00DE029E02AE009F1070123
:101B500021F00702F2E802C1914609E00FFA8CFC7D
:101B60004FEAEC71042A03D14FFA8CFC4FEAEC7176
:101B7000002907DA0A460021DCF1000C61EB0201C2
:101B80002D2202E0220504D52B228DF8042001220B
:101B900003E0E20701D02022F7E7904659E00A214E
:101BA00002E010220DE010214FF0000A00910BE03E
:101BB00010224FF0000A44F004040827009203E0CA
:101BC00008224FF0000A0092C4F30252022A05D004
:101BD00059F804CB0021032A08D009E009F10701D4
:101BE00021F00702F2E802C1914605E01FFA8CFCE1
:101BF000042A01D10CF0FF0C4FF00008220728D571
:101C0000702806D0009B83F0100353EA0A0305D026
:101C10000EE040228DF80420012208E05CEA010277
:101C200006D030228DF804208DF80500022290465F
:101C3000009B83F0080353EA0A030AD15CEA01021D
:101C400001D1620705D530228DF804204FF001083C
:101C50007F1E582804D034A003900EA802900DE0F7
:101C600036A0F9E753466046009AFEF789FB8446A2
:101C70000398825C0298401E029002705CEA0100A8
:101C8000F0D1029806A9081A00F1200A600702D5CF
:101C900024F4803400E00127574502DDA7EB0A0059
:101CA00000E0002000EB0A01009005984144401A32
:101CB0000590E00306D45B462146179A059800F08C
:101CC000B3F90544002706E001A85A46C05D1799FC
:101CD00090476D1C7F1C4745F6DBE0030CD55B4647
:101CE0002146179A059800F09FF9054404E030203A
:101CF0005A46179990476D1C0099481E009000297C
:101D0000F5DC08E0029802995A460078491C0291D5
:101D1000179990476D1CBAF10001AAF1010AF1DC94
:101D200065E100000928010030313233343536379F
:101D30003839616263646566000000003031323317
:101D400034353637383941424344454600000000B7
:101D500000F058F90544761C307800287FF4ECAD8B
:101D600019B02846BDE8F08F620700D4062709F1B4
:101D7000070222F0070CFCE80223E14603F00048CA
:101D80005FEA080C02D00FF2702C0DE05FEA045CF1
:101D900002D50FF2682C07E05FEAC47C02D00FF294
:101DA000602C01E0AFF2700C4FF0FF3823F00043DD
:101DB000CDF850C065280CD006DC452809D046284F
:101DC0001DD047283DD13DE0662818D067287ED138
:101DD00038E00021112F01DB112000E0781CCDE953
:101DE000000106A90EA8FFF7EDFCDDE90F010E9A30
:101DF00003910021009207F1010A04914DE04FF098
:101E000000400097CDE9011006A90EA8FFF7DAFC03
:101E1000DDE90F0203920E9B11990022DDF80CA060
:101E20000093049211B9791C00EB010AB7EB0A0088
:101E300004D4C0F1FF3007F1010A0490AAEB0700B7
:101E4000019044E0012F00DA01270021112F01DD6C
:101E5000112000E03846CDE9000106A90EA8FFF7E1
:101E6000B1FCDDE90F010E9A03910021049100926B
:101E7000BA4621070CD40399514500DA8A46BAF1D3
:101E8000010F05DD009AAAF10101515C302908D04B
:101E9000B84202DA10F1040F06DA0121CDE901108F
:101EA00015E0AAF10101E9E7002805DC04990144E5
:101EB0000491AAEB000102E0411C514500DD8A4675
:101EC0000499401A401C01904FF0004002902007F6
:101ED00004D40198504501DBCDF8048000208DF832
:101EE0004F0002980DF14F07B0F1004F25D02B2085
:101EF0000E9002984FF0020800280CDA404202903F
:101F00002D200E9007E00A210298FEF723FA3031C7
:101F1000029007F8011DB8F10001A8F10108F2DCF8
:101F200002980028EFD1791E0E980870307800F0E2
:101F3000200040F0450007F8020D12A8C01B00F178
:101F400007081498007800B1012000EB0A010198FD
:101F500001EBE07105984144401A401E0590E003F2
:101F600006D45B462146179A059800F05DF80544B3
:101F70001498007818B15A46179990476D1CE003E1
:101F800024D55B462146179A059800F04DF8054484
:101F90001CE00498002807DBDDE90301884203DD2B
:101FA0000098405C179901E0179930205A469047F5
:101FB000049805F10105401C04900198401E019011
:101FC00004D12E205A46179990476D1CBAF1000192
:101FD000AAF1010ADDDC05E017F8010B5A46179952
:101FE00090476D1CB8F10001A8F10108F4DC5B46D4
:101FF0002146179A0598ABE62D0000002B00000043
:10200000200000002DE9F041044600251E46174639
:10201000880404D405E039462020B0476D1C641EB6
:10202000F9D52846BDE8F0812DE9F04104460025A8
:102030001E469046C80301D5302700E020278804BB
:1020400004D505E041463846B0476D1C641EF9D5FD
:102050002846BDE8F08170B504460D462846FEF7D7
:1020600029F906462168FEF761F903D22846FEF7F2
:1020700021F920606842FEF71DF906462168FEF747
:102080005FF903D26842FEF715F9206070BD70B5A4
:1020900004460D46E0B2FFF7A3F9204670BD0000EC
:1020A0000EB5FFF741F9FEF72DFC4F48FFF700F999
:1020B00000204E49487108714D4800784FF4FA717C
:1020C00000914C4B0022CDE9011009074A48FFF767
:1020D00021F8474800784FF4FA718A00454BCDE962
:1020E00000210290002245494548FFF713F845A01A
:1020F000FFF748FB77E045480088401C00B24349A1
:1021000008804348006801286DD14248008881B2A8
:10211000364800F025F93D48B0F90000032190FB56
:10212000F1F201FB120000285AD130490869FEF78C
:10213000C1F80546384A29462F4800F0A9F8044658
:10214000FEF7C6F800B2354908800846B0F900002D
:10215000FEF7B0F806463248B0F90000FEF7AAF8DC
:10216000074632463946264800F092F80546FEF703
:10217000AFF804B22046FFF7B1F81B48007B1A49BC
:10218000C97A40EA012000B2224908802448B0F907
:10219000001024A0FFF7F6FA1348817B407B41EA48
:1021A000002000B21E4908802548B0F9001025A083
:1021B000FFF7E8FA0C48017CC07B01EB002000B27D
:1021C0001F4908800020114908800748417C24A04D
:1021D000FFF7D8FA0F48B0F9001026A0FFF7D2FA9F
:1021E00000200B49086086E744000020E000002042
:1021F0001C0000209A99993E9C0000200000A040FD
:1022000058000020726561647900000024000020FD
:10221000180000201E000020000048422800002076
:10222000200000200D0ABDD3CAD5B5BDD7AAD7D38B
:10223000CBD9B6C8CAFDBEDDA3BA2564200D0A00FD
:10224000220000200D0ABDD3CAD5B5BDD7AABED87D
:10225000B5E7C1F7CAFDBEDDA3BA2564200D0A00AB
:102260000D0AB5E7BBFACEC2B6C83A2564B6C80DAA
:102270000A0000000D0ACAD5B5BDB5C4BDC7B6C8B1
:10228000B5C4CAFDBEDDA3BA25640D0A0000000076
:102290002DE9F04704460E46154666602560314636
:1022A0002846FDF791FFA0606069FEF72AF8804696
:1022B000FEF709F80746A168FDF78CFF2062A069C8
:1022C000FEF71FF88146FDF7FEFF8046A168FDF787
:1022D00081FF0746616AFDF725FF6062D4E90201CC
:1022E000FDF772FF8046E069FEF70BF88146FDF7C7
:1022F000EAFF07464146FDF76DFFA06204F12400A6
:10230000616BFFF7A8FED4E90801FDF70BFF074654
:10231000A16AFDF707FFE06204F12C00216BFFF7D3
:102320009AFEE1682161A168E160E06ABDE8F0879A
:1023300070B5DDE9044541618261C36104634563B1
:10234000014E866370BD00000000A04010B54161E1
:102350008261C3610024046244628462C46210BD6D
:102360002DE9F04104460D4625806079012815D1FC
:1023700020886188401AB0F5805F04DD2079401E16
:1023800040B220710EE020886188401A10F5805F0D
:1023900008DA2079401C40B2207103E02088A08236
:1023A00001206071A08AFDF78EFF07461149FDF7F5
:1023B00043FF06461049FDF70DFFA06020886080AE
:1023C00094F90400C0EB403021880844A18A401AE7
:1023D000E060E068FDF76EFF80460649FDF72CFFE0
:1023E00007460549FDF7F6FE0646FDF771FF206139
:1023F000BDE8F08100F8FF450000B4431C2400084C
:102400000000002030000000A41700084C24000841
:1024100030000020C8040000B417000800000000CD
:102420000102030401020304060708090204060866
:10243000000000000000000001000000000000009B
:0C24400000000000000000000000000090
:04000005080000ED02
:00000001FF
